{
  "_format": "hh-sol-artifact-1",
  "contractName": "StackUp",
  "sourceName": "contracts/Stackup.sol",
  "abi": [
    {
      "inputs": [],
      "stateMutability": "nonpayable",
      "type": "constructor"
    },
    {
      "inputs": [],
      "name": "admin",
      "outputs": [
        {
          "internalType": "address",
          "name": "",
          "type": "address"
        }
      ],
      "stateMutability": "view",
      "type": "function"
    },
    {
      "inputs": [
        {
          "internalType": "string",
          "name": "title_",
          "type": "string"
        },
        {
          "internalType": "uint8",
          "name": "reward_",
          "type": "uint8"
        },
        {
          "internalType": "uint256",
          "name": "numberOfRewards_",
          "type": "uint256"
        }
      ],
      "name": "createQuest",
      "outputs": [],
      "stateMutability": "nonpayable",
      "type": "function"
    },
    {
      "inputs": [
        {
          "internalType": "uint256",
          "name": "questId",
          "type": "uint256"
        }
      ],
      "name": "joinQuest",
      "outputs": [],
      "stateMutability": "nonpayable",
      "type": "function"
    },
    {
      "inputs": [],
      "name": "nextQuestId",
      "outputs": [
        {
          "internalType": "uint256",
          "name": "",
          "type": "uint256"
        }
      ],
      "stateMutability": "view",
      "type": "function"
    },
    {
      "inputs": [
        {
          "internalType": "address",
          "name": "",
          "type": "address"
        },
        {
          "internalType": "uint256",
          "name": "",
          "type": "uint256"
        }
      ],
      "name": "playerQuestStatuses",
      "outputs": [
        {
          "internalType": "enum StackUp.PlayerQuestStatus",
          "name": "",
          "type": "uint8"
        }
      ],
      "stateMutability": "view",
      "type": "function"
    },
    {
      "inputs": [
        {
          "internalType": "uint256",
          "name": "",
          "type": "uint256"
        }
      ],
      "name": "quests",
      "outputs": [
        {
          "internalType": "uint256",
          "name": "questId",
          "type": "uint256"
        },
        {
          "internalType": "uint256",
          "name": "numberOfPlayers",
          "type": "uint256"
        },
        {
          "internalType": "string",
          "name": "title",
          "type": "string"
        },
        {
          "internalType": "uint8",
          "name": "reward",
          "type": "uint8"
        },
        {
          "internalType": "uint256",
          "name": "numberOfRewards",
          "type": "uint256"
        },
        {
          "internalType": "uint256",
          "name": "startDate",
          "type": "uint256"
        },
        {
          "internalType": "uint256",
          "name": "endDate",
          "type": "uint256"
        }
      ],
      "stateMutability": "view",
      "type": "function"
    },
    {
      "inputs": [],
      "name": "reviewEndedQuests",
      "outputs": [],
      "stateMutability": "nonpayable",
      "type": "function"
    },
    {
      "inputs": [
        {
          "internalType": "uint256",
          "name": "questId",
          "type": "uint256"
        }
      ],
      "name": "submitQuest",
      "outputs": [],
      "stateMutability": "nonpayable",
      "type": "function"
    }
  ],
  "bytecode": "0x608060405234801561001057600080fd5b50336000806101000a81548173ffffffffffffffffffffffffffffffffffffffff021916908373ffffffffffffffffffffffffffffffffffffffff1602179055506117e9806100606000396000f3fe608060405234801561001057600080fd5b50600436106100885760003560e01c8063d638c9831161005b578063d638c98314610111578063e085f9801461012f578063ee26d4e914610165578063f851a4401461016f57610088565b80632d96e8f21461008d57806378ff2bda146100a957806399f7358c146100c5578063ad1c8a24146100f5575b600080fd5b6100a760048036038101906100a29190610e21565b61018d565b005b6100c360048036038101906100be9190610e95565b610360565b005b6100df60048036038101906100da9190610f20565b6105fc565b6040516100ec9190610fd7565b60405180910390f35b61010f600480360381019061010a9190610e95565b61062b565b005b610119610830565b6040516101269190611001565b60405180910390f35b61014960048036038101906101449190610e95565b610836565b60405161015c97969594939291906110bb565b60405180910390f35b61016d61090d565b005b6101776109f9565b6040516101849190611140565b60405180910390f35b60008054906101000a900473ffffffffffffffffffffffffffffffffffffffff1673ffffffffffffffffffffffffffffffffffffffff163373ffffffffffffffffffffffffffffffffffffffff161461021b576040517f08c379a0000000000000000000000000000000000000000000000000000000008152600401610212906111a7565b60405180910390fd5b600154600260006001548152602001908152602001600020600001819055508383600260006001548152602001908152602001600020600201918261026192919061140d565b508160026000600154815260200190815260200160002060030160006101000a81548160ff021916908360ff160217905550806002600060015481526020019081526020016000206004018190555042600260006001548152602001908152602001600020600501819055506102fb620e808060026000600154815260200190815260200160002060050154610a1d90919063ffffffff16565b6002600060015481526020019081526020016000206006018190555060046001549080600181540180825580915050600190039060005260206000200160009091909190915055600160008154809291906103559061150c565b919050555050505050565b8060006002600083815260200190815260200160002060030160009054906101000a900460ff1660ff16036103ca576040517f08c379a00000000000000000000000000000000000000000000000000000000081526004016103c1906115a0565b60405180910390fd5b8160026000828152602001908152602001600020600601544210610423576040517f08c379a000000000000000000000000000000000000000000000000000000000815260040161041a90611632565b60405180910390fd5b6000600481111561043757610436610f60565b5b600360003373ffffffffffffffffffffffffffffffffffffffff1673ffffffffffffffffffffffffffffffffffffffff168152602001908152602001600020600085815260200190815260200160002060009054906101000a900460ff1660048111156104a7576104a6610f60565b5b146104e7576040517f08c379a00000000000000000000000000000000000000000000000000000000081526004016104de906116c4565b60405180910390fd5b6001600360003373ffffffffffffffffffffffffffffffffffffffff1673ffffffffffffffffffffffffffffffffffffffff168152602001908152602001600020600085815260200190815260200160002060006101000a81548160ff0219169083600481111561055b5761055a610f60565b5b0217905550600060026000858152602001908152602001600020905080600101600081548092919061058c9061150c565b919050555080600701339080600181540180825580915050600190039060005260206000200160009091909190916101000a81548173ffffffffffffffffffffffffffffffffffffffff021916908373ffffffffffffffffffffffffffffffffffffffff16021790555050505050565b60036020528160005260406000206020528060005260406000206000915091509054906101000a900460ff1681565b8060006002600083815260200190815260200160002060030160009054906101000a900460ff1660ff1603610695576040517f08c379a000000000000000000000000000000000000000000000000000000000815260040161068c906115a0565b60405180910390fd5b81600260008281526020019081526020016000206006015442106106ee576040517f08c379a00000000000000000000000000000000000000000000000000000000081526004016106e590611632565b60405180910390fd5b6001600481111561070257610701610f60565b5b600360003373ffffffffffffffffffffffffffffffffffffffff1673ffffffffffffffffffffffffffffffffffffffff168152602001908152602001600020600085815260200190815260200160002060009054906101000a900460ff16600481111561077257610771610f60565b5b146107b2576040517f08c379a00000000000000000000000000000000000000000000000000000000081526004016107a990611730565b60405180910390fd5b6002600360003373ffffffffffffffffffffffffffffffffffffffff1673ffffffffffffffffffffffffffffffffffffffff168152602001908152602001600020600085815260200190815260200160002060006101000a81548160ff0219169083600481111561082657610825610f60565b5b0217905550505050565b60015481565b600260205280600052604060002060009150905080600001549080600101549080600201805461086590611230565b80601f016020809104026020016040519081016040528092919081815260200182805461089190611230565b80156108de5780601f106108b3576101008083540402835291602001916108de565b820191906000526020600020905b8154815290600101906020018083116108c157829003601f168201915b5050505050908060030160009054906101000a900460ff16908060040154908060050154908060060154905087565b610915610a33565b6000600580549050905060005b818110156109f5576000600582815481106109405761093f611750565b5b90600052602060002001549050600060026000838152602001908152602001600020905060008160070180549050905060005b818110156109de57600083600701828154811061099357610992611750565b5b9060005260206000200160009054906101000a900473ffffffffffffffffffffffffffffffffffffffff1690506109ca8582610aca565b5080806109d69061150c565b915050610973565b5050505080806109ed9061150c565b915050610922565b5050565b60008054906101000a900473ffffffffffffffffffffffffffffffffffffffff1681565b60008183610a2b919061177f565b905092915050565b6000600480549050905060005b81811015610ac657600060048281548110610a5e57610a5d611750565b5b9060005260206000200154905060026000828152602001908152602001600020600601544210610ab25760058190806001815401808255809150506001900390600052602060002001600090919091909150555b508080610abe9061150c565b915050610a40565b5050565b8160006002600083815260200190815260200160002060030160009054906101000a900460ff1660ff1603610b34576040517f08c379a0000000000000000000000000000000000000000000000000000000008152600401610b2b906115a0565b60405180910390fd5b60026004811115610b4857610b47610f60565b5b600360008473ffffffffffffffffffffffffffffffffffffffff1673ffffffffffffffffffffffffffffffffffffffff168152602001908152602001600020600085815260200190815260200160002060009054906101000a900460ff166004811115610bb857610bb7610f60565b5b03610c3b576004600360008473ffffffffffffffffffffffffffffffffffffffff1673ffffffffffffffffffffffffffffffffffffffff168152602001908152602001600020600085815260200190815260200160002060006101000a81548160ff02191690836004811115610c3157610c30610f60565b5b0217905550610d3e565b60016004811115610c4f57610c4e610f60565b5b600360008473ffffffffffffffffffffffffffffffffffffffff1673ffffffffffffffffffffffffffffffffffffffff168152602001908152602001600020600085815260200190815260200160002060009054906101000a900460ff166004811115610cbf57610cbe610f60565b5b03610d3d5760038060008473ffffffffffffffffffffffffffffffffffffffff1673ffffffffffffffffffffffffffffffffffffffff168152602001908152602001600020600085815260200190815260200160002060006101000a81548160ff02191690836004811115610d3757610d36610f60565b5b02179055505b5b505050565b600080fd5b600080fd5b600080fd5b600080fd5b600080fd5b60008083601f840112610d7257610d71610d4d565b5b8235905067ffffffffffffffff811115610d8f57610d8e610d52565b5b602083019150836001820283011115610dab57610daa610d57565b5b9250929050565b600060ff82169050919050565b610dc881610db2565b8114610dd357600080fd5b50565b600081359050610de581610dbf565b92915050565b6000819050919050565b610dfe81610deb565b8114610e0957600080fd5b50565b600081359050610e1b81610df5565b92915050565b60008060008060608587031215610e3b57610e3a610d43565b5b600085013567ffffffffffffffff811115610e5957610e58610d48565b5b610e6587828801610d5c565b94509450506020610e7887828801610dd6565b9250506040610e8987828801610e0c565b91505092959194509250565b600060208284031215610eab57610eaa610d43565b5b6000610eb984828501610e0c565b91505092915050565b600073ffffffffffffffffffffffffffffffffffffffff82169050919050565b6000610eed82610ec2565b9050919050565b610efd81610ee2565b8114610f0857600080fd5b50565b600081359050610f1a81610ef4565b92915050565b60008060408385031215610f3757610f36610d43565b5b6000610f4585828601610f0b565b9250506020610f5685828601610e0c565b9150509250929050565b7f4e487b7100000000000000000000000000000000000000000000000000000000600052602160045260246000fd5b60058110610fa057610f9f610f60565b5b50565b6000819050610fb182610f8f565b919050565b6000610fc182610fa3565b9050919050565b610fd181610fb6565b82525050565b6000602082019050610fec6000830184610fc8565b92915050565b610ffb81610deb565b82525050565b60006020820190506110166000830184610ff2565b92915050565b600081519050919050565b600082825260208201905092915050565b60005b8381101561105657808201518184015260208101905061103b565b60008484015250505050565b6000601f19601f8301169050919050565b600061107e8261101c565b6110888185611027565b9350611098818560208601611038565b6110a181611062565b840191505092915050565b6110b581610db2565b82525050565b600060e0820190506110d0600083018a610ff2565b6110dd6020830189610ff2565b81810360408301526110ef8188611073565b90506110fe60608301876110ac565b61110b6080830186610ff2565b61111860a0830185610ff2565b61112560c0830184610ff2565b98975050505050505050565b61113a81610ee2565b82525050565b60006020820190506111556000830184611131565b92915050565b7f4f6e6c79207468652061646d696e2063616e2063726561746520717565737473600082015250565b6000611191602083611027565b915061119c8261115b565b602082019050919050565b600060208201905081810360008301526111c081611184565b9050919050565b600082905092915050565b7f4e487b7100000000000000000000000000000000000000000000000000000000600052604160045260246000fd5b7f4e487b7100000000000000000000000000000000000000000000000000000000600052602260045260246000fd5b6000600282049050600182168061124857607f821691505b60208210810361125b5761125a611201565b5b50919050565b60008190508160005260206000209050919050565b60006020601f8301049050919050565b600082821b905092915050565b6000600883026112c37fffffffffffffffffffffffffffffffffffffffffffffffffffffffffffffffff82611286565b6112cd8683611286565b95508019841693508086168417925050509392505050565b6000819050919050565b600061130a61130561130084610deb565b6112e5565b610deb565b9050919050565b6000819050919050565b611324836112ef565b61133861133082611311565b848454611293565b825550505050565b600090565b61134d611340565b61135881848461131b565b505050565b5b8181101561137c57611371600082611345565b60018101905061135e565b5050565b601f8211156113c15761139281611261565b61139b84611276565b810160208510156113aa578190505b6113be6113b685611276565b83018261135d565b50505b505050565b600082821c905092915050565b60006113e4600019846008026113c6565b1980831691505092915050565b60006113fd83836113d3565b9150826002028217905092915050565b61141783836111c7565b67ffffffffffffffff8111156114305761142f6111d2565b5b61143a8254611230565b611445828285611380565b6000601f8311600181146114745760008415611462578287013590505b61146c85826113f1565b8655506114d4565b601f19841661148286611261565b60005b828110156114aa57848901358255600182019150602085019450602081019050611485565b868310156114c757848901356114c3601f8916826113d3565b8355505b6001600288020188555050505b50505050505050565b7f4e487b7100000000000000000000000000000000000000000000000000000000600052601160045260246000fd5b600061151782610deb565b91507fffffffffffffffffffffffffffffffffffffffffffffffffffffffffffffffff8203611549576115486114dd565b5b600182019050919050565b7f517565737420646f6573206e6f74206578697374000000000000000000000000600082015250565b600061158a601483611027565b915061159582611554565b602082019050919050565b600060208201905081810360008301526115b98161157d565b9050919050565b7f43616e6e6f74206a6f696e2f7375626d69742071756573742c2071756573742060008201527f68617320656e6465640000000000000000000000000000000000000000000000602082015250565b600061161c602983611027565b9150611627826115c0565b604082019050919050565b6000602082019050818103600083015261164b8161160f565b9050919050565b7f506c617965722068617320616c7265616479206a6f696e65642f7375626d697460008201527f7465642074686973207175657374000000000000000000000000000000000000602082015250565b60006116ae602e83611027565b91506116b982611652565b604082019050919050565b600060208201905081810360008301526116dd816116a1565b9050919050565b7f506c61796572206d757374206669727374206a6f696e20746865207175657374600082015250565b600061171a602083611027565b9150611725826116e4565b602082019050919050565b600060208201905081810360008301526117498161170d565b9050919050565b7f4e487b7100000000000000000000000000000000000000000000000000000000600052603260045260246000fd5b600061178a82610deb565b915061179583610deb565b92508282019050808211156117ad576117ac6114dd565b5b9291505056fea2646970667358221220db606c54186ec0998f625ba44d16e544e67615eabad50b39b76383749cf23adf64736f6c63430008120033",
  "linkReferences": {},
  "deployedLinkReferences": {}
}